{
  "_format": "hh-sol-artifact-1",
  "contractName": "FarmlandRegistry",
  "sourceName": "contracts/FarmlandRegistry.sol",
  "abi": [
    {
      "inputs": [],
      "stateMutability": "nonpayable",
      "type": "constructor"
    },
    {
      "anonymous": false,
      "inputs": [
        {
          "indexed": true,
          "internalType": "address",
          "name": "owner",
          "type": "address"
        },
        {
          "indexed": true,
          "internalType": "address",
          "name": "approved",
          "type": "address"
        },
        {
          "indexed": true,
          "internalType": "uint256",
          "name": "tokenId",
          "type": "uint256"
        }
      ],
      "name": "Approval",
      "type": "event"
    },
    {
      "anonymous": false,
      "inputs": [
        {
          "indexed": true,
          "internalType": "address",
          "name": "owner",
          "type": "address"
        },
        {
          "indexed": true,
          "internalType": "address",
          "name": "operator",
          "type": "address"
        },
        {
          "indexed": false,
          "internalType": "bool",
          "name": "approved",
          "type": "bool"
        }
      ],
      "name": "ApprovalForAll",
      "type": "event"
    },
    {
      "anonymous": false,
      "inputs": [
        {
          "indexed": true,
          "internalType": "address",
          "name": "previousOwner",
          "type": "address"
        },
        {
          "indexed": true,
          "internalType": "address",
          "name": "newOwner",
          "type": "address"
        }
      ],
      "name": "OwnershipTransferred",
      "type": "event"
    },
    {
      "anonymous": false,
      "inputs": [
        {
          "indexed": true,
          "internalType": "address",
          "name": "from",
          "type": "address"
        },
        {
          "indexed": true,
          "internalType": "address",
          "name": "to",
          "type": "address"
        },
        {
          "indexed": true,
          "internalType": "uint256",
          "name": "tokenId",
          "type": "uint256"
        }
      ],
      "name": "Transfer",
      "type": "event"
    },
    {
      "inputs": [
        {
          "internalType": "address",
          "name": "to",
          "type": "address"
        },
        {
          "internalType": "uint256",
          "name": "tokenId",
          "type": "uint256"
        }
      ],
      "name": "approve",
      "outputs": [],
      "stateMutability": "nonpayable",
      "type": "function"
    },
    {
      "inputs": [
        {
          "internalType": "address",
          "name": "owner",
          "type": "address"
        }
      ],
      "name": "balanceOf",
      "outputs": [
        {
          "internalType": "uint256",
          "name": "",
          "type": "uint256"
        }
      ],
      "stateMutability": "view",
      "type": "function"
    },
    {
      "inputs": [
        {
          "internalType": "uint256",
          "name": "tokenId",
          "type": "uint256"
        }
      ],
      "name": "burn",
      "outputs": [],
      "stateMutability": "nonpayable",
      "type": "function"
    },
    {
      "inputs": [
        {
          "internalType": "uint256",
          "name": "tokenId",
          "type": "uint256"
        }
      ],
      "name": "getApproved",
      "outputs": [
        {
          "internalType": "address",
          "name": "",
          "type": "address"
        }
      ],
      "stateMutability": "view",
      "type": "function"
    },
    {
      "inputs": [
        {
          "internalType": "address",
          "name": "owner",
          "type": "address"
        },
        {
          "internalType": "address",
          "name": "operator",
          "type": "address"
        }
      ],
      "name": "isApprovedForAll",
      "outputs": [
        {
          "internalType": "bool",
          "name": "",
          "type": "bool"
        }
      ],
      "stateMutability": "view",
      "type": "function"
    },
    {
      "inputs": [],
      "name": "name",
      "outputs": [
        {
          "internalType": "string",
          "name": "",
          "type": "string"
        }
      ],
      "stateMutability": "view",
      "type": "function"
    },
    {
      "inputs": [],
      "name": "owner",
      "outputs": [
        {
          "internalType": "address",
          "name": "",
          "type": "address"
        }
      ],
      "stateMutability": "view",
      "type": "function"
    },
    {
      "inputs": [
        {
          "internalType": "uint256",
          "name": "tokenId",
          "type": "uint256"
        }
      ],
      "name": "ownerOf",
      "outputs": [
        {
          "internalType": "address",
          "name": "",
          "type": "address"
        }
      ],
      "stateMutability": "view",
      "type": "function"
    },
    {
      "inputs": [],
      "name": "renounceOwnership",
      "outputs": [],
      "stateMutability": "nonpayable",
      "type": "function"
    },
    {
      "inputs": [
        {
          "internalType": "address",
          "name": "to",
          "type": "address"
        },
        {
          "internalType": "uint256",
          "name": "tokenId",
          "type": "uint256"
        }
      ],
      "name": "safeMint",
      "outputs": [],
      "stateMutability": "nonpayable",
      "type": "function"
    },
    {
      "inputs": [
        {
          "internalType": "address",
          "name": "from",
          "type": "address"
        },
        {
          "internalType": "address",
          "name": "to",
          "type": "address"
        },
        {
          "internalType": "uint256",
          "name": "tokenId",
          "type": "uint256"
        }
      ],
      "name": "safeTransferFrom",
      "outputs": [],
      "stateMutability": "nonpayable",
      "type": "function"
    },
    {
      "inputs": [
        {
          "internalType": "address",
          "name": "from",
          "type": "address"
        },
        {
          "internalType": "address",
          "name": "to",
          "type": "address"
        },
        {
          "internalType": "uint256",
          "name": "tokenId",
          "type": "uint256"
        },
        {
          "internalType": "bytes",
          "name": "data",
          "type": "bytes"
        }
      ],
      "name": "safeTransferFrom",
      "outputs": [],
      "stateMutability": "nonpayable",
      "type": "function"
    },
    {
      "inputs": [
        {
          "internalType": "address",
          "name": "operator",
          "type": "address"
        },
        {
          "internalType": "bool",
          "name": "approved",
          "type": "bool"
        }
      ],
      "name": "setApprovalForAll",
      "outputs": [],
      "stateMutability": "nonpayable",
      "type": "function"
    },
    {
      "inputs": [
        {
          "internalType": "bytes4",
          "name": "interfaceId",
          "type": "bytes4"
        }
      ],
      "name": "supportsInterface",
      "outputs": [
        {
          "internalType": "bool",
          "name": "",
          "type": "bool"
        }
      ],
      "stateMutability": "view",
      "type": "function"
    },
    {
      "inputs": [],
      "name": "symbol",
      "outputs": [
        {
          "internalType": "string",
          "name": "",
          "type": "string"
        }
      ],
      "stateMutability": "view",
      "type": "function"
    },
    {
      "inputs": [
        {
          "internalType": "uint256",
          "name": "index",
          "type": "uint256"
        }
      ],
      "name": "tokenByIndex",
      "outputs": [
        {
          "internalType": "uint256",
          "name": "",
          "type": "uint256"
        }
      ],
      "stateMutability": "view",
      "type": "function"
    },
    {
      "inputs": [
        {
          "internalType": "address",
          "name": "owner",
          "type": "address"
        },
        {
          "internalType": "uint256",
          "name": "index",
          "type": "uint256"
        }
      ],
      "name": "tokenOfOwnerByIndex",
      "outputs": [
        {
          "internalType": "uint256",
          "name": "",
          "type": "uint256"
        }
      ],
      "stateMutability": "view",
      "type": "function"
    },
    {
      "inputs": [
        {
          "internalType": "uint256",
          "name": "tokenId",
          "type": "uint256"
        }
      ],
      "name": "tokenURI",
      "outputs": [
        {
          "internalType": "string",
          "name": "",
          "type": "string"
        }
      ],
      "stateMutability": "view",
      "type": "function"
    },
    {
      "inputs": [],
      "name": "totalSupply",
      "outputs": [
        {
          "internalType": "uint256",
          "name": "",
          "type": "uint256"
        }
      ],
      "stateMutability": "view",
      "type": "function"
    },
    {
      "inputs": [
        {
          "internalType": "address",
          "name": "from",
          "type": "address"
        },
        {
          "internalType": "address",
          "name": "to",
          "type": "address"
        },
        {
          "internalType": "uint256",
          "name": "tokenId",
          "type": "uint256"
        }
      ],
      "name": "transferFrom",
      "outputs": [],
      "stateMutability": "nonpayable",
      "type": "function"
    },
    {
      "inputs": [
        {
          "internalType": "address",
          "name": "newOwner",
          "type": "address"
        }
      ],
      "name": "transferOwnership",
      "outputs": [],
      "stateMutability": "nonpayable",
      "type": "function"
    }
  ],
  "bytecode": "0x60806040523480156200001157600080fd5b50604080518082018252601081526f4661726d6c616e64526567697374727960801b6020808301918252835180850190945260048452634641524d60e01b9084015281519192916200006691600091620000f5565b5080516200007c906001906020840190620000f5565b50505062000099620000936200009f60201b60201c565b620000a3565b620001d8565b3390565b600a80546001600160a01b038381166001600160a01b0319831681179093556040519116919082907f8be0079c531659141344cd1fd0a4f28419497f9722a3daafe3b4186f6b6457e090600090a35050565b82805462000103906200019b565b90600052602060002090601f01602090048101928262000127576000855562000172565b82601f106200014257805160ff191683800117855562000172565b8280016001018555821562000172579182015b828111156200017257825182559160200191906001019062000155565b506200018092915062000184565b5090565b5b8082111562000180576000815560010162000185565b600181811c90821680620001b057607f821691505b60208210811415620001d257634e487b7160e01b600052602260045260246000fd5b50919050565b6119cb80620001e86000396000f3fe608060405234801561001057600080fd5b50600436106101375760003560e01c80636352211e116100b8578063a14481941161007c578063a144819414610271578063a22cb46514610284578063b88d4fde14610297578063c87b56dd146102aa578063e985e9c5146102bd578063f2fde38b146102f957600080fd5b80636352211e1461022a57806370a082311461023d578063715018a6146102505780638da5cb5b1461025857806395d89b411461026957600080fd5b806323b872dd116100ff57806323b872dd146101cb5780632f745c59146101de57806342842e0e146101f157806342966c68146102045780634f6ccce71461021757600080fd5b806301ffc9a71461013c57806306fdde0314610164578063081812fc14610179578063095ea7b3146101a457806318160ddd146101b9575b600080fd5b61014f61014a3660046116c9565b61030c565b60405190151581526020015b60405180910390f35b61016c61031d565b60405161015b91906117b1565b61018c610187366004611701565b6103af565b6040516001600160a01b03909116815260200161015b565b6101b76101b23660046116a0565b6103d6565b005b6008545b60405190815260200161015b565b6101b76101d9366004611556565b6104f1565b6101bd6101ec3660046116a0565b610523565b6101b76101ff366004611556565b6105b9565b6101b7610212366004611701565b6105d4565b6101bd610225366004611701565b610605565b61018c610238366004611701565b6106a6565b6101bd61024b36600461150a565b610706565b6101b761078c565b600a546001600160a01b031661018c565b61016c6107a0565b6101b761027f3660046116a0565b6107af565b6101b7610292366004611666565b6107c5565b6101b76102a5366004611591565b6107d0565b61016c6102b8366004611701565b610808565b61014f6102cb366004611524565b6001600160a01b03918216600090815260056020908152604080832093909416825291909152205460ff1690565b6101b761030736600461150a565b61087c565b6000610317826108f2565b92915050565b60606000805461032c906118d3565b80601f0160208091040260200160405190810160405280929190818152602001828054610358906118d3565b80156103a55780601f1061037a576101008083540402835291602001916103a5565b820191906000526020600020905b81548152906001019060200180831161038857829003601f168201915b5050505050905090565b60006103ba82610917565b506000908152600460205260409020546001600160a01b031690565b60006103e1826106a6565b9050806001600160a01b0316836001600160a01b031614156104545760405162461bcd60e51b815260206004820152602160248201527f4552433732313a20617070726f76616c20746f2063757272656e74206f776e656044820152603960f91b60648201526084015b60405180910390fd5b336001600160a01b0382161480610470575061047081336102cb565b6104e25760405162461bcd60e51b815260206004820152603e60248201527f4552433732313a20617070726f76652063616c6c6572206973206e6f7420746f60448201527f6b656e206f776e6572206e6f7220617070726f76656420666f7220616c6c0000606482015260840161044b565b6104ec8383610976565b505050565b6104fc335b826109e4565b6105185760405162461bcd60e51b815260040161044b90611816565b6104ec838383610a63565b600061052e83610706565b82106105905760405162461bcd60e51b815260206004820152602b60248201527f455243373231456e756d657261626c653a206f776e657220696e646578206f7560448201526a74206f6620626f756e647360a81b606482015260840161044b565b506001600160a01b03919091166000908152600660209081526040808320938352929052205490565b6104ec838383604051806020016040528060008152506107d0565b6105dd336104f6565b6105f95760405162461bcd60e51b815260040161044b90611816565b61060281610c0a565b50565b600061061060085490565b82106106735760405162461bcd60e51b815260206004820152602c60248201527f455243373231456e756d657261626c653a20676c6f62616c20696e646578206f60448201526b7574206f6620626f756e647360a01b606482015260840161044b565b6008828154811061069457634e487b7160e01b600052603260045260246000fd5b90600052602060002001549050919050565b6000818152600260205260408120546001600160a01b0316806103175760405162461bcd60e51b8152602060048201526018602482015277115490cdcc8c4e881a5b9d985b1a59081d1bdad95b88125160421b604482015260640161044b565b60006001600160a01b0382166107705760405162461bcd60e51b815260206004820152602960248201527f4552433732313a2061646472657373207a65726f206973206e6f7420612076616044820152683634b21037bbb732b960b91b606482015260840161044b565b506001600160a01b031660009081526003602052604090205490565b610794610cb1565b61079e6000610d0b565b565b60606001805461032c906118d3565b6107b7610cb1565b6107c18282610d5d565b5050565b6107c1338383610d77565b6107da33836109e4565b6107f65760405162461bcd60e51b815260040161044b90611816565b61080284848484610e46565b50505050565b606061081382610917565b600061082a60408051602081019091526000815290565b9050600081511161084a5760405180602001604052806000815250610875565b8061085484610e79565b604051602001610865929190611745565b6040516020818303038152906040525b9392505050565b610884610cb1565b6001600160a01b0381166108e95760405162461bcd60e51b815260206004820152602660248201527f4f776e61626c653a206e6577206f776e657220697320746865207a65726f206160448201526564647265737360d01b606482015260840161044b565b61060281610d0b565b60006001600160e01b0319821663780e9d6360e01b1480610317575061031782610f93565b6000818152600260205260409020546001600160a01b03166106025760405162461bcd60e51b8152602060048201526018602482015277115490cdcc8c4e881a5b9d985b1a59081d1bdad95b88125160421b604482015260640161044b565b600081815260046020526040902080546001600160a01b0319166001600160a01b03841690811790915581906109ab826106a6565b6001600160a01b03167f8c5be1e5ebec7d5bd14f71427d1e84f3dd0314c0f7b2291e5b200ac8c7c3b92560405160405180910390a45050565b6000806109f0836106a6565b9050806001600160a01b0316846001600160a01b03161480610a3757506001600160a01b0380821660009081526005602090815260408083209388168352929052205460ff165b80610a5b5750836001600160a01b0316610a50846103af565b6001600160a01b0316145b949350505050565b826001600160a01b0316610a76826106a6565b6001600160a01b031614610ada5760405162461bcd60e51b815260206004820152602560248201527f4552433732313a207472616e736665722066726f6d20696e636f72726563742060448201526437bbb732b960d91b606482015260840161044b565b6001600160a01b038216610b3c5760405162461bcd60e51b8152602060048201526024808201527f4552433732313a207472616e7366657220746f20746865207a65726f206164646044820152637265737360e01b606482015260840161044b565b610b47838383610fe3565b610b52600082610976565b6001600160a01b0383166000908152600360205260408120805460019290610b7b908490611890565b90915550506001600160a01b0382166000908152600360205260408120805460019290610ba9908490611864565b909155505060008181526002602052604080822080546001600160a01b0319166001600160a01b0386811691821790925591518493918716917fddf252ad1be2c89b69c2b068fc378daa952ba7f163c4a11628f55a4df523b3ef91a4505050565b6000610c15826106a6565b9050610c2381600084610fe3565b610c2e600083610976565b6001600160a01b0381166000908152600360205260408120805460019290610c57908490611890565b909155505060008281526002602052604080822080546001600160a01b0319169055518391906001600160a01b038416907fddf252ad1be2c89b69c2b068fc378daa952ba7f163c4a11628f55a4df523b3ef908390a45050565b600a546001600160a01b0316331461079e5760405162461bcd60e51b815260206004820181905260248201527f4f776e61626c653a2063616c6c6572206973206e6f7420746865206f776e6572604482015260640161044b565b600a80546001600160a01b038381166001600160a01b0319831681179093556040519116919082907f8be0079c531659141344cd1fd0a4f28419497f9722a3daafe3b4186f6b6457e090600090a35050565b6107c1828260405180602001604052806000815250610fee565b816001600160a01b0316836001600160a01b03161415610dd95760405162461bcd60e51b815260206004820152601960248201527f4552433732313a20617070726f766520746f2063616c6c657200000000000000604482015260640161044b565b6001600160a01b03838116600081815260056020908152604080832094871680845294825291829020805460ff191686151590811790915591519182527f17307eab39ab6107e8899845ad3d59bd9653f200f220920489ca2b5937696c31910160405180910390a3505050565b610e51848484610a63565b610e5d84848484611021565b6108025760405162461bcd60e51b815260040161044b906117c4565b606081610e9d5750506040805180820190915260018152600360fc1b602082015290565b8160005b8115610ec75780610eb18161190e565b9150610ec09050600a8361187c565b9150610ea1565b60008167ffffffffffffffff811115610ef057634e487b7160e01b600052604160045260246000fd5b6040519080825280601f01601f191660200182016040528015610f1a576020820181803683370190505b5090505b8415610a5b57610f2f600183611890565b9150610f3c600a86611929565b610f47906030611864565b60f81b818381518110610f6a57634e487b7160e01b600052603260045260246000fd5b60200101906001600160f81b031916908160001a905350610f8c600a8661187c565b9450610f1e565b60006001600160e01b031982166380ac58cd60e01b1480610fc457506001600160e01b03198216635b5e139f60e01b145b8061031757506301ffc9a760e01b6001600160e01b0319831614610317565b6104ec83838361112e565b610ff883836111e6565b6110056000848484611021565b6104ec5760405162461bcd60e51b815260040161044b906117c4565b60006001600160a01b0384163b1561112357604051630a85bd0160e11b81526001600160a01b0385169063150b7a0290611065903390899088908890600401611774565b602060405180830381600087803b15801561107f57600080fd5b505af19250505080156110af575060408051601f3d908101601f191682019092526110ac918101906116e5565b60015b611109573d8080156110dd576040519150601f19603f3d011682016040523d82523d6000602084013e6110e2565b606091505b5080516111015760405162461bcd60e51b815260040161044b906117c4565b805181602001fd5b6001600160e01b031916630a85bd0160e11b149050610a5b565b506001949350505050565b6001600160a01b0383166111895761118481600880546000838152600960205260408120829055600182018355919091527ff3f7a9fe364faab93b216da50a3214154f22a0a2b415b23a84c8169e8b636ee30155565b6111ac565b816001600160a01b0316836001600160a01b0316146111ac576111ac8382611334565b6001600160a01b0382166111c3576104ec816113d1565b826001600160a01b0316826001600160a01b0316146104ec576104ec82826114aa565b6001600160a01b03821661123c5760405162461bcd60e51b815260206004820181905260248201527f4552433732313a206d696e7420746f20746865207a65726f2061646472657373604482015260640161044b565b6000818152600260205260409020546001600160a01b0316156112a15760405162461bcd60e51b815260206004820152601c60248201527f4552433732313a20746f6b656e20616c7265616479206d696e74656400000000604482015260640161044b565b6112ad60008383610fe3565b6001600160a01b03821660009081526003602052604081208054600192906112d6908490611864565b909155505060008181526002602052604080822080546001600160a01b0319166001600160a01b03861690811790915590518392907fddf252ad1be2c89b69c2b068fc378daa952ba7f163c4a11628f55a4df523b3ef908290a45050565b6000600161134184610706565b61134b9190611890565b60008381526007602052604090205490915080821461139e576001600160a01b03841660009081526006602090815260408083208584528252808320548484528184208190558352600790915290208190555b5060009182526007602090815260408084208490556001600160a01b039094168352600681528383209183525290812055565b6008546000906113e390600190611890565b6000838152600960205260408120546008805493945090928490811061141957634e487b7160e01b600052603260045260246000fd5b90600052602060002001549050806008838154811061144857634e487b7160e01b600052603260045260246000fd5b600091825260208083209091019290925582815260099091526040808220849055858252812055600880548061148e57634e487b7160e01b600052603160045260246000fd5b6001900381819060005260206000200160009055905550505050565b60006114b583610706565b6001600160a01b039093166000908152600660209081526040808320868452825280832085905593825260079052919091209190915550565b80356001600160a01b038116811461150557600080fd5b919050565b60006020828403121561151b578081fd5b610875826114ee565b60008060408385031215611536578081fd5b61153f836114ee565b915061154d602084016114ee565b90509250929050565b60008060006060848603121561156a578081fd5b611573846114ee565b9250611581602085016114ee565b9150604084013590509250925092565b600080600080608085870312156115a6578081fd5b6115af856114ee565b93506115bd602086016114ee565b925060408501359150606085013567ffffffffffffffff808211156115e0578283fd5b818701915087601f8301126115f3578283fd5b81358181111561160557611605611969565b604051601f8201601f19908116603f0116810190838211818310171561162d5761162d611969565b816040528281528a6020848701011115611645578586fd5b82602086016020830137918201602001949094529598949750929550505050565b60008060408385031215611678578182fd5b611681836114ee565b915060208301358015158114611695578182fd5b809150509250929050565b600080604083850312156116b2578182fd5b6116bb836114ee565b946020939093013593505050565b6000602082840312156116da578081fd5b81356108758161197f565b6000602082840312156116f6578081fd5b81516108758161197f565b600060208284031215611712578081fd5b5035919050565b600081518084526117318160208601602086016118a7565b601f01601f19169290920160200192915050565b600083516117578184602088016118a7565b83519083019061176b8183602088016118a7565b01949350505050565b6001600160a01b03858116825284166020820152604081018390526080606082018190526000906117a790830184611719565b9695505050505050565b6020815260006108756020830184611719565b60208082526032908201527f4552433732313a207472616e7366657220746f206e6f6e20455243373231526560408201527131b2b4bb32b91034b6b83632b6b2b73a32b960711b606082015260800190565b6020808252602e908201527f4552433732313a2063616c6c6572206973206e6f7420746f6b656e206f776e6560408201526d1c881b9bdc88185c1c1c9bdd995960921b606082015260800190565b600082198211156118775761187761193d565b500190565b60008261188b5761188b611953565b500490565b6000828210156118a2576118a261193d565b500390565b60005b838110156118c25781810151838201526020016118aa565b838111156108025750506000910152565b600181811c908216806118e757607f821691505b6020821081141561190857634e487b7160e01b600052602260045260246000fd5b50919050565b60006000198214156119225761192261193d565b5060010190565b60008261193857611938611953565b500690565b634e487b7160e01b600052601160045260246000fd5b634e487b7160e01b600052601260045260246000fd5b634e487b7160e01b600052604160045260246000fd5b6001600160e01b03198116811461060257600080fdfea2646970667358221220deb207e169b34acc8456702996eb7e12cd166ac2f6510c6e609001bf96db9fcc64736f6c63430008040033",
  "linkReferences": {},
  "deployedLinkReferences": {}
}