{
  "_format": "hh-sol-artifact-1",
  "contractName": "FarmlandRegistry",
  "sourceName": "contracts/registry/FarmlandRegistry.sol",
  "abi": [
    {
      "inputs": [],
      "stateMutability": "nonpayable",
      "type": "constructor"
    },
    {
      "anonymous": false,
      "inputs": [
        {
          "indexed": true,
          "internalType": "address",
          "name": "owner",
          "type": "address"
        },
        {
          "indexed": true,
          "internalType": "address",
          "name": "approved",
          "type": "address"
        },
        {
          "indexed": true,
          "internalType": "uint256",
          "name": "tokenId",
          "type": "uint256"
        }
      ],
      "name": "Approval",
      "type": "event"
    },
    {
      "anonymous": false,
      "inputs": [
        {
          "indexed": true,
          "internalType": "address",
          "name": "owner",
          "type": "address"
        },
        {
          "indexed": true,
          "internalType": "address",
          "name": "operator",
          "type": "address"
        },
        {
          "indexed": false,
          "internalType": "bool",
          "name": "approved",
          "type": "bool"
        }
      ],
      "name": "ApprovalForAll",
      "type": "event"
    },
    {
      "anonymous": false,
      "inputs": [
        {
          "indexed": true,
          "internalType": "address",
          "name": "previousOwner",
          "type": "address"
        },
        {
          "indexed": true,
          "internalType": "address",
          "name": "newOwner",
          "type": "address"
        }
      ],
      "name": "OwnershipTransferred",
      "type": "event"
    },
    {
      "anonymous": false,
      "inputs": [
        {
          "indexed": true,
          "internalType": "uint256",
          "name": "tokenId",
          "type": "uint256"
        },
        {
          "indexed": true,
          "internalType": "address",
          "name": "setter",
          "type": "address"
        },
        {
          "indexed": false,
          "internalType": "string",
          "name": "uri",
          "type": "string"
        }
      ],
      "name": "TokenURIUpdate",
      "type": "event"
    },
    {
      "anonymous": false,
      "inputs": [
        {
          "indexed": true,
          "internalType": "address",
          "name": "from",
          "type": "address"
        },
        {
          "indexed": true,
          "internalType": "address",
          "name": "to",
          "type": "address"
        },
        {
          "indexed": true,
          "internalType": "uint256",
          "name": "tokenId",
          "type": "uint256"
        }
      ],
      "name": "Transfer",
      "type": "event"
    },
    {
      "inputs": [
        {
          "internalType": "address",
          "name": "",
          "type": "address"
        },
        {
          "internalType": "uint256",
          "name": "",
          "type": "uint256"
        }
      ],
      "name": "approve",
      "outputs": [],
      "stateMutability": "pure",
      "type": "function"
    },
    {
      "inputs": [
        {
          "internalType": "address",
          "name": "owner",
          "type": "address"
        }
      ],
      "name": "balanceOf",
      "outputs": [
        {
          "internalType": "uint256",
          "name": "",
          "type": "uint256"
        }
      ],
      "stateMutability": "view",
      "type": "function"
    },
    {
      "inputs": [
        {
          "internalType": "uint256",
          "name": "tokenId",
          "type": "uint256"
        }
      ],
      "name": "burn",
      "outputs": [],
      "stateMutability": "nonpayable",
      "type": "function"
    },
    {
      "inputs": [
        {
          "internalType": "uint256",
          "name": "tokenId",
          "type": "uint256"
        }
      ],
      "name": "getApproved",
      "outputs": [
        {
          "internalType": "address",
          "name": "",
          "type": "address"
        }
      ],
      "stateMutability": "view",
      "type": "function"
    },
    {
      "inputs": [
        {
          "internalType": "address",
          "name": "owner",
          "type": "address"
        },
        {
          "internalType": "address",
          "name": "operator",
          "type": "address"
        }
      ],
      "name": "isApprovedForAll",
      "outputs": [
        {
          "internalType": "bool",
          "name": "",
          "type": "bool"
        }
      ],
      "stateMutability": "view",
      "type": "function"
    },
    {
      "inputs": [],
      "name": "name",
      "outputs": [
        {
          "internalType": "string",
          "name": "",
          "type": "string"
        }
      ],
      "stateMutability": "view",
      "type": "function"
    },
    {
      "inputs": [],
      "name": "owner",
      "outputs": [
        {
          "internalType": "address",
          "name": "",
          "type": "address"
        }
      ],
      "stateMutability": "view",
      "type": "function"
    },
    {
      "inputs": [
        {
          "internalType": "uint256",
          "name": "tokenId",
          "type": "uint256"
        }
      ],
      "name": "ownerOf",
      "outputs": [
        {
          "internalType": "address",
          "name": "",
          "type": "address"
        }
      ],
      "stateMutability": "view",
      "type": "function"
    },
    {
      "inputs": [],
      "name": "renounceOwnership",
      "outputs": [],
      "stateMutability": "nonpayable",
      "type": "function"
    },
    {
      "inputs": [
        {
          "internalType": "address",
          "name": "to",
          "type": "address"
        },
        {
          "internalType": "uint256",
          "name": "tokenId",
          "type": "uint256"
        }
      ],
      "name": "safeMint",
      "outputs": [],
      "stateMutability": "nonpayable",
      "type": "function"
    },
    {
      "inputs": [
        {
          "internalType": "address",
          "name": "from",
          "type": "address"
        },
        {
          "internalType": "address",
          "name": "to",
          "type": "address"
        },
        {
          "internalType": "uint256",
          "name": "tokenId",
          "type": "uint256"
        }
      ],
      "name": "safeTransferFrom",
      "outputs": [],
      "stateMutability": "nonpayable",
      "type": "function"
    },
    {
      "inputs": [
        {
          "internalType": "address",
          "name": "from",
          "type": "address"
        },
        {
          "internalType": "address",
          "name": "to",
          "type": "address"
        },
        {
          "internalType": "uint256",
          "name": "tokenId",
          "type": "uint256"
        },
        {
          "internalType": "bytes",
          "name": "data",
          "type": "bytes"
        }
      ],
      "name": "safeTransferFrom",
      "outputs": [],
      "stateMutability": "nonpayable",
      "type": "function"
    },
    {
      "inputs": [
        {
          "internalType": "address",
          "name": "",
          "type": "address"
        },
        {
          "internalType": "bool",
          "name": "",
          "type": "bool"
        }
      ],
      "name": "setApprovalForAll",
      "outputs": [],
      "stateMutability": "pure",
      "type": "function"
    },
    {
      "inputs": [
        {
          "internalType": "uint256",
          "name": "tokenId",
          "type": "uint256"
        },
        {
          "internalType": "string",
          "name": "uri",
          "type": "string"
        }
      ],
      "name": "setTokenURI",
      "outputs": [],
      "stateMutability": "nonpayable",
      "type": "function"
    },
    {
      "inputs": [
        {
          "internalType": "bytes4",
          "name": "interfaceId",
          "type": "bytes4"
        }
      ],
      "name": "supportsInterface",
      "outputs": [
        {
          "internalType": "bool",
          "name": "",
          "type": "bool"
        }
      ],
      "stateMutability": "view",
      "type": "function"
    },
    {
      "inputs": [],
      "name": "symbol",
      "outputs": [
        {
          "internalType": "string",
          "name": "",
          "type": "string"
        }
      ],
      "stateMutability": "view",
      "type": "function"
    },
    {
      "inputs": [
        {
          "internalType": "uint256",
          "name": "index",
          "type": "uint256"
        }
      ],
      "name": "tokenByIndex",
      "outputs": [
        {
          "internalType": "uint256",
          "name": "",
          "type": "uint256"
        }
      ],
      "stateMutability": "view",
      "type": "function"
    },
    {
      "inputs": [
        {
          "internalType": "address",
          "name": "owner",
          "type": "address"
        },
        {
          "internalType": "uint256",
          "name": "index",
          "type": "uint256"
        }
      ],
      "name": "tokenOfOwnerByIndex",
      "outputs": [
        {
          "internalType": "uint256",
          "name": "",
          "type": "uint256"
        }
      ],
      "stateMutability": "view",
      "type": "function"
    },
    {
      "inputs": [
        {
          "internalType": "uint256",
          "name": "tokenId",
          "type": "uint256"
        }
      ],
      "name": "tokenURI",
      "outputs": [
        {
          "internalType": "string",
          "name": "",
          "type": "string"
        }
      ],
      "stateMutability": "view",
      "type": "function"
    },
    {
      "inputs": [],
      "name": "totalSupply",
      "outputs": [
        {
          "internalType": "uint256",
          "name": "",
          "type": "uint256"
        }
      ],
      "stateMutability": "view",
      "type": "function"
    },
    {
      "inputs": [
        {
          "internalType": "address",
          "name": "from",
          "type": "address"
        },
        {
          "internalType": "address",
          "name": "to",
          "type": "address"
        },
        {
          "internalType": "uint256",
          "name": "tokenId",
          "type": "uint256"
        }
      ],
      "name": "transferFrom",
      "outputs": [],
      "stateMutability": "nonpayable",
      "type": "function"
    },
    {
      "inputs": [
        {
          "internalType": "address",
          "name": "newOwner",
          "type": "address"
        }
      ],
      "name": "transferOwnership",
      "outputs": [],
      "stateMutability": "nonpayable",
      "type": "function"
    }
  ],
  "bytecode": "0x60806040523480156200001157600080fd5b50604080518082018252601081526f4661726d6c616e64526567697374727960801b6020808301918252835180850190945260048452634641524d60e01b9084015281519192916200006691600091620000f5565b5080516200007c906001906020840190620000f5565b50505062000099620000936200009f60201b60201c565b620000a3565b620001d8565b3390565b600b80546001600160a01b038381166001600160a01b0319831681179093556040519116919082907f8be0079c531659141344cd1fd0a4f28419497f9722a3daafe3b4186f6b6457e090600090a35050565b82805462000103906200019b565b90600052602060002090601f01602090048101928262000127576000855562000172565b82601f106200014257805160ff191683800117855562000172565b8280016001018555821562000172579182015b828111156200017257825182559160200191906001019062000155565b506200018092915062000184565b5090565b5b8082111562000180576000815560010162000185565b600181811c90821680620001b057607f821691505b60208210811415620001d257634e487b7160e01b600052602260045260246000fd5b50919050565b611b1280620001e86000396000f3fe608060405234801561001057600080fd5b50600436106101425760003560e01c80636352211e116100b8578063a14481941161007c578063a14481941461028f578063a22cb465146102a2578063b88d4fde146102b0578063c87b56dd146102c3578063e985e9c5146102d6578063f2fde38b1461031257600080fd5b80636352211e1461024857806370a082311461025b578063715018a61461026e5780638da5cb5b1461027657806395d89b411461028757600080fd5b806318160ddd1161010a57806318160ddd146101d757806323b872dd146101e95780632f745c59146101fc57806342842e0e1461020f57806342966c68146102225780634f6ccce71461023557600080fd5b806301ffc9a71461014757806306fdde031461016f578063081812fc14610184578063095ea7b3146101af578063162094c4146101c4575b600080fd5b61015a610155366004611806565b610325565b60405190151581526020015b60405180910390f35b610177610336565b6040516101669190611946565b61019761019236600461183e565b6103c8565b6040516001600160a01b039091168152602001610166565b6101c26101bd3660046117dd565b6103ef565b005b6101c26101d2366004611856565b610440565b6008545b604051908152602001610166565b6101c26101f73660046116ef565b610498565b6101db61020a3660046117dd565b6104a8565b6101c261021d3660046116ef565b61053e565b6101c261023036600461183e565b610559565b6101db61024336600461183e565b610565565b61019761025636600461183e565b610606565b6101db6102693660046116a3565b610666565b6101c26106ec565b600b546001600160a01b0316610197565b610177610700565b6101c261029d3660046117dd565b61070f565b6101c26101bd3660046117a3565b6101c26102be36600461172a565b610721565b6101776102d136600461183e565b610733565b61015a6102e43660046116bd565b6001600160a01b03918216600090815260056020908152604080832093909416825291909152205460ff1690565b6101c26103203660046116a3565b61073e565b6000610330826107b4565b92915050565b60606000805461034590611a1a565b80601f016020809104026020016040519081016040528092919081815260200182805461037190611a1a565b80156103be5780601f10610393576101008083540402835291602001916103be565b820191906000526020600020905b8154815290600101906020018083116103a157829003601f168201915b5050505050905090565b60006103d3826107d9565b506000908152600460205260409020546001600160a01b031690565b60405162461bcd60e51b815260206004820181905260248201527f4661726d6c616e6452656769737472793a204e6f7420617070726f7661626c6560448201526064015b60405180910390fd5b5050565b610448610838565b6104528282610892565b336001600160a01b0316827fac027339c24c20f5f41275b1117adb65235d94f2680f571352a226f09a6b184e8360405161048c9190611946565b60405180910390a35050565b6104a383838361092c565b505050565b60006104b383610666565b82106105155760405162461bcd60e51b815260206004820152602b60248201527f455243373231456e756d657261626c653a206f776e657220696e646578206f7560448201526a74206f6620626f756e647360a81b6064820152608401610433565b506001600160a01b03919091166000908152600660209081526040808320938352929052205490565b6104a383838360405180602001604052806000815250610721565b61056281610ad3565b50565b600061057060085490565b82106105d35760405162461bcd60e51b815260206004820152602c60248201527f455243373231456e756d657261626c653a20676c6f62616c20696e646578206f60448201526b7574206f6620626f756e647360a01b6064820152608401610433565b600882815481106105f457634e487b7160e01b600052603260045260246000fd5b90600052602060002001549050919050565b6000818152600260205260408120546001600160a01b0316806103305760405162461bcd60e51b8152602060048201526018602482015277115490cdcc8c4e881a5b9d985b1a59081d1bdad95b88125160421b6044820152606401610433565b60006001600160a01b0382166106d05760405162461bcd60e51b815260206004820152602960248201527f4552433732313a2061646472657373207a65726f206973206e6f7420612076616044820152683634b21037bbb732b960b91b6064820152608401610433565b506001600160a01b031660009081526003602052604090205490565b6106f4610838565b6106fe6000610adc565b565b60606001805461034590611a1a565b610717610838565b61043c8282610b2e565b61072d84848484610b48565b50505050565b606061033082610b7b565b610746610838565b6001600160a01b0381166107ab5760405162461bcd60e51b815260206004820152602660248201527f4f776e61626c653a206e6577206f776e657220697320746865207a65726f206160448201526564647265737360d01b6064820152608401610433565b61056281610adc565b60006001600160e01b0319821663780e9d6360e01b1480610330575061033082610c8c565b6000818152600260205260409020546001600160a01b03166105625760405162461bcd60e51b8152602060048201526018602482015277115490cdcc8c4e881a5b9d985b1a59081d1bdad95b88125160421b6044820152606401610433565b600b546001600160a01b031633146106fe5760405162461bcd60e51b815260206004820181905260248201527f4f776e61626c653a2063616c6c6572206973206e6f7420746865206f776e65726044820152606401610433565b6000828152600260205260409020546001600160a01b031661090d5760405162461bcd60e51b815260206004820152602e60248201527f45524337323155524953746f726167653a2055524920736574206f66206e6f6e60448201526d32bc34b9ba32b73a103a37b5b2b760911b6064820152608401610433565b6000828152600a6020908152604090912082516104a392840190611542565b826001600160a01b031661093f82610606565b6001600160a01b0316146109a35760405162461bcd60e51b815260206004820152602560248201527f4552433732313a207472616e736665722066726f6d20696e636f72726563742060448201526437bbb732b960d91b6064820152608401610433565b6001600160a01b038216610a055760405162461bcd60e51b8152602060048201526024808201527f4552433732313a207472616e7366657220746f20746865207a65726f206164646044820152637265737360e01b6064820152608401610433565b610a10838383610cdc565b610a1b600082610d5f565b6001600160a01b0383166000908152600360205260408120805460019290610a449084906119d7565b90915550506001600160a01b0382166000908152600360205260408120805460019290610a729084906119ab565b909155505060008181526002602052604080822080546001600160a01b0319166001600160a01b0386811691821790925591518493918716917fddf252ad1be2c89b69c2b068fc378daa952ba7f163c4a11628f55a4df523b3ef91a4505050565b61056281610dcd565b600b80546001600160a01b038381166001600160a01b0319831681179093556040519116919082907f8be0079c531659141344cd1fd0a4f28419497f9722a3daafe3b4186f6b6457e090600090a35050565b61043c828260405180602001604052806000815250610e0d565b610b5384848461092c565b610b5f84848484610e40565b61072d5760405162461bcd60e51b815260040161043390611959565b6060610b86826107d9565b6000828152600a602052604081208054610b9f90611a1a565b80601f0160208091040260200160405190810160405280929190818152602001828054610bcb90611a1a565b8015610c185780601f10610bed57610100808354040283529160200191610c18565b820191906000526020600020905b815481529060010190602001808311610bfb57829003601f168201915b505050505090506000610c3660408051602081019091526000815290565b9050805160001415610c49575092915050565b815115610c7b578082604051602001610c639291906118da565b60405160208183030381529060405292505050919050565b610c8484610f4d565b949350505050565b60006001600160e01b031982166380ac58cd60e01b1480610cbd57506001600160e01b03198216635b5e139f60e01b145b8061033057506301ffc9a760e01b6001600160e01b0319831614610330565b600b546001600160a01b03163314610d545760405162461bcd60e51b815260206004820152603560248201527f4661726d6c616e6452656769737472793a204f6e6c79207472616e736665726160448201527431363290313c9031b7b73a3930b1ba1037bbb732b960591b6064820152608401610433565b6104a3838383610fc1565b600081815260046020526040902080546001600160a01b0319166001600160a01b0384169081179091558190610d9482610606565b6001600160a01b03167f8c5be1e5ebec7d5bd14f71427d1e84f3dd0314c0f7b2291e5b200ac8c7c3b92560405160405180910390a45050565b610dd681611079565b6000818152600a602052604090208054610def90611a1a565b159050610562576000818152600a60205260408120610562916115c6565b610e178383611120565b610e246000848484610e40565b6104a35760405162461bcd60e51b815260040161043390611959565b60006001600160a01b0384163b15610f4257604051630a85bd0160e11b81526001600160a01b0385169063150b7a0290610e84903390899088908890600401611909565b602060405180830381600087803b158015610e9e57600080fd5b505af1925050508015610ece575060408051601f3d908101601f19168201909252610ecb91810190611822565b60015b610f28573d808015610efc576040519150601f19603f3d011682016040523d82523d6000602084013e610f01565b606091505b508051610f205760405162461bcd60e51b815260040161043390611959565b805181602001fd5b6001600160e01b031916630a85bd0160e11b149050610c84565b506001949350505050565b6060610f58826107d9565b6000610f6f60408051602081019091526000815290565b90506000815111610f8f5760405180602001604052806000815250610fba565b80610f998461126e565b604051602001610faa9291906118da565b6040516020818303038152906040525b9392505050565b6001600160a01b03831661101c5761101781600880546000838152600960205260408120829055600182018355919091527ff3f7a9fe364faab93b216da50a3214154f22a0a2b415b23a84c8169e8b636ee30155565b61103f565b816001600160a01b0316836001600160a01b03161461103f5761103f8382611388565b6001600160a01b038216611056576104a381611425565b826001600160a01b0316826001600160a01b0316146104a3576104a382826114fe565b600061108482610606565b905061109281600084610cdc565b61109d600083610d5f565b6001600160a01b03811660009081526003602052604081208054600192906110c69084906119d7565b909155505060008281526002602052604080822080546001600160a01b0319169055518391906001600160a01b038416907fddf252ad1be2c89b69c2b068fc378daa952ba7f163c4a11628f55a4df523b3ef908390a45050565b6001600160a01b0382166111765760405162461bcd60e51b815260206004820181905260248201527f4552433732313a206d696e7420746f20746865207a65726f20616464726573736044820152606401610433565b6000818152600260205260409020546001600160a01b0316156111db5760405162461bcd60e51b815260206004820152601c60248201527f4552433732313a20746f6b656e20616c7265616479206d696e746564000000006044820152606401610433565b6111e760008383610cdc565b6001600160a01b03821660009081526003602052604081208054600192906112109084906119ab565b909155505060008181526002602052604080822080546001600160a01b0319166001600160a01b03861690811790915590518392907fddf252ad1be2c89b69c2b068fc378daa952ba7f163c4a11628f55a4df523b3ef908290a45050565b6060816112925750506040805180820190915260018152600360fc1b602082015290565b8160005b81156112bc57806112a681611a55565b91506112b59050600a836119c3565b9150611296565b60008167ffffffffffffffff8111156112e557634e487b7160e01b600052604160045260246000fd5b6040519080825280601f01601f19166020018201604052801561130f576020820181803683370190505b5090505b8415610c84576113246001836119d7565b9150611331600a86611a70565b61133c9060306119ab565b60f81b81838151811061135f57634e487b7160e01b600052603260045260246000fd5b60200101906001600160f81b031916908160001a905350611381600a866119c3565b9450611313565b6000600161139584610666565b61139f91906119d7565b6000838152600760205260409020549091508082146113f2576001600160a01b03841660009081526006602090815260408083208584528252808320548484528184208190558352600790915290208190555b5060009182526007602090815260408084208490556001600160a01b039094168352600681528383209183525290812055565b600854600090611437906001906119d7565b6000838152600960205260408120546008805493945090928490811061146d57634e487b7160e01b600052603260045260246000fd5b90600052602060002001549050806008838154811061149c57634e487b7160e01b600052603260045260246000fd5b60009182526020808320909101929092558281526009909152604080822084905585825281205560088054806114e257634e487b7160e01b600052603160045260246000fd5b6001900381819060005260206000200160009055905550505050565b600061150983610666565b6001600160a01b039093166000908152600660209081526040808320868452825280832085905593825260079052919091209190915550565b82805461154e90611a1a565b90600052602060002090601f01602090048101928261157057600085556115b6565b82601f1061158957805160ff19168380011785556115b6565b828001600101855582156115b6579182015b828111156115b657825182559160200191906001019061159b565b506115c29291506115fc565b5090565b5080546115d290611a1a565b6000825580601f106115e2575050565b601f01602090049060005260206000209081019061056291905b5b808211156115c257600081556001016115fd565b600067ffffffffffffffff8084111561162c5761162c611ab0565b604051601f8501601f19908116603f0116810190828211818310171561165457611654611ab0565b8160405280935085815286868601111561166d57600080fd5b858560208301376000602087830101525050509392505050565b80356001600160a01b038116811461169e57600080fd5b919050565b6000602082840312156116b4578081fd5b610fba82611687565b600080604083850312156116cf578081fd5b6116d883611687565b91506116e660208401611687565b90509250929050565b600080600060608486031215611703578081fd5b61170c84611687565b925061171a60208501611687565b9150604084013590509250925092565b6000806000806080858703121561173f578081fd5b61174885611687565b935061175660208601611687565b925060408501359150606085013567ffffffffffffffff811115611778578182fd5b8501601f81018713611788578182fd5b61179787823560208401611611565b91505092959194509250565b600080604083850312156117b5578182fd5b6117be83611687565b9150602083013580151581146117d2578182fd5b809150509250929050565b600080604083850312156117ef578182fd5b6117f883611687565b946020939093013593505050565b600060208284031215611817578081fd5b8135610fba81611ac6565b600060208284031215611833578081fd5b8151610fba81611ac6565b60006020828403121561184f578081fd5b5035919050565b60008060408385031215611868578182fd5b82359150602083013567ffffffffffffffff811115611885578182fd5b8301601f81018513611895578182fd5b6118a485823560208401611611565b9150509250929050565b600081518084526118c68160208601602086016119ee565b601f01601f19169290920160200192915050565b600083516118ec8184602088016119ee565b8351908301906119008183602088016119ee565b01949350505050565b6001600160a01b038581168252841660208201526040810183905260806060820181905260009061193c908301846118ae565b9695505050505050565b602081526000610fba60208301846118ae565b60208082526032908201527f4552433732313a207472616e7366657220746f206e6f6e20455243373231526560408201527131b2b4bb32b91034b6b83632b6b2b73a32b960711b606082015260800190565b600082198211156119be576119be611a84565b500190565b6000826119d2576119d2611a9a565b500490565b6000828210156119e9576119e9611a84565b500390565b60005b83811015611a095781810151838201526020016119f1565b8381111561072d5750506000910152565b600181811c90821680611a2e57607f821691505b60208210811415611a4f57634e487b7160e01b600052602260045260246000fd5b50919050565b6000600019821415611a6957611a69611a84565b5060010190565b600082611a7f57611a7f611a9a565b500690565b634e487b7160e01b600052601160045260246000fd5b634e487b7160e01b600052601260045260246000fd5b634e487b7160e01b600052604160045260246000fd5b6001600160e01b03198116811461056257600080fdfea2646970667358221220fe4a8eb059145a052b0601b3fc7ada437ff9c1f2cecafe986cee977043d2b3f664736f6c63430008040033",
  "linkReferences": {},
  "deployedLinkReferences": {}
}