{
  "_format": "hh-sol-artifact-1",
  "contractName": "FarmlandRegistry",
  "sourceName": "contracts/registry/FarmlandRegistry.sol",
  "abi": [
    {
      "inputs": [],
      "stateMutability": "nonpayable",
      "type": "constructor"
    },
    {
      "anonymous": false,
      "inputs": [
        {
          "indexed": true,
          "internalType": "address",
          "name": "owner",
          "type": "address"
        },
        {
          "indexed": true,
          "internalType": "address",
          "name": "approved",
          "type": "address"
        },
        {
          "indexed": true,
          "internalType": "uint256",
          "name": "tokenId",
          "type": "uint256"
        }
      ],
      "name": "Approval",
      "type": "event"
    },
    {
      "anonymous": false,
      "inputs": [
        {
          "indexed": true,
          "internalType": "address",
          "name": "owner",
          "type": "address"
        },
        {
          "indexed": true,
          "internalType": "address",
          "name": "operator",
          "type": "address"
        },
        {
          "indexed": false,
          "internalType": "bool",
          "name": "approved",
          "type": "bool"
        }
      ],
      "name": "ApprovalForAll",
      "type": "event"
    },
    {
      "anonymous": false,
      "inputs": [
        {
          "indexed": true,
          "internalType": "address",
          "name": "previousOwner",
          "type": "address"
        },
        {
          "indexed": true,
          "internalType": "address",
          "name": "newOwner",
          "type": "address"
        }
      ],
      "name": "OwnershipTransferred",
      "type": "event"
    },
    {
      "anonymous": false,
      "inputs": [
        {
          "indexed": true,
          "internalType": "address",
          "name": "from",
          "type": "address"
        },
        {
          "indexed": true,
          "internalType": "address",
          "name": "to",
          "type": "address"
        },
        {
          "indexed": true,
          "internalType": "uint256",
          "name": "tokenId",
          "type": "uint256"
        }
      ],
      "name": "Transfer",
      "type": "event"
    },
    {
      "inputs": [
        {
          "internalType": "address",
          "name": "",
          "type": "address"
        },
        {
          "internalType": "uint256",
          "name": "",
          "type": "uint256"
        }
      ],
      "name": "approve",
      "outputs": [],
      "stateMutability": "pure",
      "type": "function"
    },
    {
      "inputs": [
        {
          "internalType": "address",
          "name": "owner",
          "type": "address"
        }
      ],
      "name": "balanceOf",
      "outputs": [
        {
          "internalType": "uint256",
          "name": "",
          "type": "uint256"
        }
      ],
      "stateMutability": "view",
      "type": "function"
    },
    {
      "inputs": [
        {
          "internalType": "uint256",
          "name": "tokenId",
          "type": "uint256"
        }
      ],
      "name": "burn",
      "outputs": [],
      "stateMutability": "nonpayable",
      "type": "function"
    },
    {
      "inputs": [
        {
          "internalType": "uint256",
          "name": "tokenId",
          "type": "uint256"
        }
      ],
      "name": "getApproved",
      "outputs": [
        {
          "internalType": "address",
          "name": "",
          "type": "address"
        }
      ],
      "stateMutability": "view",
      "type": "function"
    },
    {
      "inputs": [
        {
          "internalType": "address",
          "name": "owner",
          "type": "address"
        },
        {
          "internalType": "address",
          "name": "operator",
          "type": "address"
        }
      ],
      "name": "isApprovedForAll",
      "outputs": [
        {
          "internalType": "bool",
          "name": "",
          "type": "bool"
        }
      ],
      "stateMutability": "view",
      "type": "function"
    },
    {
      "inputs": [],
      "name": "name",
      "outputs": [
        {
          "internalType": "string",
          "name": "",
          "type": "string"
        }
      ],
      "stateMutability": "view",
      "type": "function"
    },
    {
      "inputs": [],
      "name": "owner",
      "outputs": [
        {
          "internalType": "address",
          "name": "",
          "type": "address"
        }
      ],
      "stateMutability": "view",
      "type": "function"
    },
    {
      "inputs": [
        {
          "internalType": "uint256",
          "name": "tokenId",
          "type": "uint256"
        }
      ],
      "name": "ownerOf",
      "outputs": [
        {
          "internalType": "address",
          "name": "",
          "type": "address"
        }
      ],
      "stateMutability": "view",
      "type": "function"
    },
    {
      "inputs": [],
      "name": "renounceOwnership",
      "outputs": [],
      "stateMutability": "nonpayable",
      "type": "function"
    },
    {
      "inputs": [
        {
          "internalType": "address",
          "name": "to",
          "type": "address"
        },
        {
          "internalType": "uint256",
          "name": "tokenId",
          "type": "uint256"
        }
      ],
      "name": "safeMint",
      "outputs": [],
      "stateMutability": "nonpayable",
      "type": "function"
    },
    {
      "inputs": [
        {
          "internalType": "address",
          "name": "from",
          "type": "address"
        },
        {
          "internalType": "address",
          "name": "to",
          "type": "address"
        },
        {
          "internalType": "uint256",
          "name": "tokenId",
          "type": "uint256"
        }
      ],
      "name": "safeTransferFrom",
      "outputs": [],
      "stateMutability": "nonpayable",
      "type": "function"
    },
    {
      "inputs": [
        {
          "internalType": "address",
          "name": "from",
          "type": "address"
        },
        {
          "internalType": "address",
          "name": "to",
          "type": "address"
        },
        {
          "internalType": "uint256",
          "name": "tokenId",
          "type": "uint256"
        },
        {
          "internalType": "bytes",
          "name": "data",
          "type": "bytes"
        }
      ],
      "name": "safeTransferFrom",
      "outputs": [],
      "stateMutability": "nonpayable",
      "type": "function"
    },
    {
      "inputs": [
        {
          "internalType": "address",
          "name": "",
          "type": "address"
        },
        {
          "internalType": "bool",
          "name": "",
          "type": "bool"
        }
      ],
      "name": "setApprovalForAll",
      "outputs": [],
      "stateMutability": "pure",
      "type": "function"
    },
    {
      "inputs": [
        {
          "internalType": "uint256",
          "name": "tokenId",
          "type": "uint256"
        },
        {
          "internalType": "string",
          "name": "_tokenURI",
          "type": "string"
        }
      ],
      "name": "setTokenURI",
      "outputs": [],
      "stateMutability": "nonpayable",
      "type": "function"
    },
    {
      "inputs": [
        {
          "internalType": "bytes4",
          "name": "interfaceId",
          "type": "bytes4"
        }
      ],
      "name": "supportsInterface",
      "outputs": [
        {
          "internalType": "bool",
          "name": "",
          "type": "bool"
        }
      ],
      "stateMutability": "view",
      "type": "function"
    },
    {
      "inputs": [],
      "name": "symbol",
      "outputs": [
        {
          "internalType": "string",
          "name": "",
          "type": "string"
        }
      ],
      "stateMutability": "view",
      "type": "function"
    },
    {
      "inputs": [
        {
          "internalType": "uint256",
          "name": "index",
          "type": "uint256"
        }
      ],
      "name": "tokenByIndex",
      "outputs": [
        {
          "internalType": "uint256",
          "name": "",
          "type": "uint256"
        }
      ],
      "stateMutability": "view",
      "type": "function"
    },
    {
      "inputs": [
        {
          "internalType": "address",
          "name": "owner",
          "type": "address"
        },
        {
          "internalType": "uint256",
          "name": "index",
          "type": "uint256"
        }
      ],
      "name": "tokenOfOwnerByIndex",
      "outputs": [
        {
          "internalType": "uint256",
          "name": "",
          "type": "uint256"
        }
      ],
      "stateMutability": "view",
      "type": "function"
    },
    {
      "inputs": [
        {
          "internalType": "uint256",
          "name": "tokenId",
          "type": "uint256"
        }
      ],
      "name": "tokenURI",
      "outputs": [
        {
          "internalType": "string",
          "name": "",
          "type": "string"
        }
      ],
      "stateMutability": "view",
      "type": "function"
    },
    {
      "inputs": [],
      "name": "totalSupply",
      "outputs": [
        {
          "internalType": "uint256",
          "name": "",
          "type": "uint256"
        }
      ],
      "stateMutability": "view",
      "type": "function"
    },
    {
      "inputs": [
        {
          "internalType": "address",
          "name": "from",
          "type": "address"
        },
        {
          "internalType": "address",
          "name": "to",
          "type": "address"
        },
        {
          "internalType": "uint256",
          "name": "tokenId",
          "type": "uint256"
        }
      ],
      "name": "transferFrom",
      "outputs": [],
      "stateMutability": "nonpayable",
      "type": "function"
    },
    {
      "inputs": [
        {
          "internalType": "address",
          "name": "newOwner",
          "type": "address"
        }
      ],
      "name": "transferOwnership",
      "outputs": [],
      "stateMutability": "nonpayable",
      "type": "function"
    }
  ],
  "bytecode": "0x60806040523480156200001157600080fd5b50604080518082018252601081526f4661726d6c616e64526567697374727960801b6020808301918252835180850190945260048452634641524d60e01b9084015281519192916200006691600091620000f5565b5080516200007c906001906020840190620000f5565b50505062000099620000936200009f60201b60201c565b620000a3565b620001d8565b3390565b600b80546001600160a01b038381166001600160a01b0319831681179093556040519116919082907f8be0079c531659141344cd1fd0a4f28419497f9722a3daafe3b4186f6b6457e090600090a35050565b82805462000103906200019b565b90600052602060002090601f01602090048101928262000127576000855562000172565b82601f106200014257805160ff191683800117855562000172565b8280016001018555821562000172579182015b828111156200017257825182559160200191906001019062000155565b506200018092915062000184565b5090565b5b8082111562000180576000815560010162000185565b600181811c90821680620001b057607f821691505b60208210811415620001d257634e487b7160e01b600052602260045260246000fd5b50919050565b611acc80620001e86000396000f3fe608060405234801561001057600080fd5b50600436106101425760003560e01c80636352211e116100b8578063a14481941161007c578063a14481941461028f578063a22cb465146102a2578063b88d4fde146102b0578063c87b56dd146102c3578063e985e9c5146102d6578063f2fde38b1461031257600080fd5b80636352211e1461024857806370a082311461025b578063715018a61461026e5780638da5cb5b1461027657806395d89b411461028757600080fd5b806318160ddd1161010a57806318160ddd146101d757806323b872dd146101e95780632f745c59146101fc57806342842e0e1461020f57806342966c68146102225780634f6ccce71461023557600080fd5b806301ffc9a71461014757806306fdde031461016f578063081812fc14610184578063095ea7b3146101af578063162094c4146101c4575b600080fd5b61015a6101553660046117c0565b610325565b60405190151581526020015b60405180910390f35b610177610336565b6040516101669190611900565b6101976101923660046117f8565b6103c8565b6040516001600160a01b039091168152602001610166565b6101c26101bd366004611797565b6103ef565b005b6101c26101d2366004611810565b610440565b6008545b604051908152602001610166565b6101c26101f73660046116a9565b610452565b6101db61020a366004611797565b610462565b6101c261021d3660046116a9565b6104f8565b6101c26102303660046117f8565b610513565b6101db6102433660046117f8565b61051f565b6101976102563660046117f8565b6105c0565b6101db61026936600461165d565b610620565b6101c26106a6565b600b546001600160a01b0316610197565b6101776106ba565b6101c261029d366004611797565b6106c9565b6101c26101bd36600461175d565b6101c26102be3660046116e4565b6106db565b6101776102d13660046117f8565b6106ed565b61015a6102e4366004611677565b6001600160a01b03918216600090815260056020908152604080832093909416825291909152205460ff1690565b6101c261032036600461165d565b6106f8565b60006103308261076e565b92915050565b606060008054610345906119d4565b80601f0160208091040260200160405190810160405280929190818152602001828054610371906119d4565b80156103be5780601f10610393576101008083540402835291602001916103be565b820191906000526020600020905b8154815290600101906020018083116103a157829003601f168201915b5050505050905090565b60006103d382610793565b506000908152600460205260409020546001600160a01b031690565b60405162461bcd60e51b815260206004820181905260248201527f4661726d6c616e6452656769737472793a204e6f7420617070726f7661626c6560448201526064015b60405180910390fd5b5050565b6104486107f2565b61043c828261084c565b61045d8383836108e6565b505050565b600061046d83610620565b82106104cf5760405162461bcd60e51b815260206004820152602b60248201527f455243373231456e756d657261626c653a206f776e657220696e646578206f7560448201526a74206f6620626f756e647360a81b6064820152608401610433565b506001600160a01b03919091166000908152600660209081526040808320938352929052205490565b61045d838383604051806020016040528060008152506106db565b61051c81610a8d565b50565b600061052a60085490565b821061058d5760405162461bcd60e51b815260206004820152602c60248201527f455243373231456e756d657261626c653a20676c6f62616c20696e646578206f60448201526b7574206f6620626f756e647360a01b6064820152608401610433565b600882815481106105ae57634e487b7160e01b600052603260045260246000fd5b90600052602060002001549050919050565b6000818152600260205260408120546001600160a01b0316806103305760405162461bcd60e51b8152602060048201526018602482015277115490cdcc8c4e881a5b9d985b1a59081d1bdad95b88125160421b6044820152606401610433565b60006001600160a01b03821661068a5760405162461bcd60e51b815260206004820152602960248201527f4552433732313a2061646472657373207a65726f206973206e6f7420612076616044820152683634b21037bbb732b960b91b6064820152608401610433565b506001600160a01b031660009081526003602052604090205490565b6106ae6107f2565b6106b86000610a96565b565b606060018054610345906119d4565b6106d16107f2565b61043c8282610ae8565b6106e784848484610b02565b50505050565b606061033082610b35565b6107006107f2565b6001600160a01b0381166107655760405162461bcd60e51b815260206004820152602660248201527f4f776e61626c653a206e6577206f776e657220697320746865207a65726f206160448201526564647265737360d01b6064820152608401610433565b61051c81610a96565b60006001600160e01b0319821663780e9d6360e01b1480610330575061033082610c46565b6000818152600260205260409020546001600160a01b031661051c5760405162461bcd60e51b8152602060048201526018602482015277115490cdcc8c4e881a5b9d985b1a59081d1bdad95b88125160421b6044820152606401610433565b600b546001600160a01b031633146106b85760405162461bcd60e51b815260206004820181905260248201527f4f776e61626c653a2063616c6c6572206973206e6f7420746865206f776e65726044820152606401610433565b6000828152600260205260409020546001600160a01b03166108c75760405162461bcd60e51b815260206004820152602e60248201527f45524337323155524953746f726167653a2055524920736574206f66206e6f6e60448201526d32bc34b9ba32b73a103a37b5b2b760911b6064820152608401610433565b6000828152600a60209081526040909120825161045d928401906114fc565b826001600160a01b03166108f9826105c0565b6001600160a01b03161461095d5760405162461bcd60e51b815260206004820152602560248201527f4552433732313a207472616e736665722066726f6d20696e636f72726563742060448201526437bbb732b960d91b6064820152608401610433565b6001600160a01b0382166109bf5760405162461bcd60e51b8152602060048201526024808201527f4552433732313a207472616e7366657220746f20746865207a65726f206164646044820152637265737360e01b6064820152608401610433565b6109ca838383610c96565b6109d5600082610d19565b6001600160a01b03831660009081526003602052604081208054600192906109fe908490611991565b90915550506001600160a01b0382166000908152600360205260408120805460019290610a2c908490611965565b909155505060008181526002602052604080822080546001600160a01b0319166001600160a01b0386811691821790925591518493918716917fddf252ad1be2c89b69c2b068fc378daa952ba7f163c4a11628f55a4df523b3ef91a4505050565b61051c81610d87565b600b80546001600160a01b038381166001600160a01b0319831681179093556040519116919082907f8be0079c531659141344cd1fd0a4f28419497f9722a3daafe3b4186f6b6457e090600090a35050565b61043c828260405180602001604052806000815250610dc7565b610b0d8484846108e6565b610b1984848484610dfa565b6106e75760405162461bcd60e51b815260040161043390611913565b6060610b4082610793565b6000828152600a602052604081208054610b59906119d4565b80601f0160208091040260200160405190810160405280929190818152602001828054610b85906119d4565b8015610bd25780601f10610ba757610100808354040283529160200191610bd2565b820191906000526020600020905b815481529060010190602001808311610bb557829003601f168201915b505050505090506000610bf060408051602081019091526000815290565b9050805160001415610c03575092915050565b815115610c35578082604051602001610c1d929190611894565b60405160208183030381529060405292505050919050565b610c3e84610f07565b949350505050565b60006001600160e01b031982166380ac58cd60e01b1480610c7757506001600160e01b03198216635b5e139f60e01b145b8061033057506301ffc9a760e01b6001600160e01b0319831614610330565b600b546001600160a01b03163314610d0e5760405162461bcd60e51b815260206004820152603560248201527f4661726d6c616e6452656769737472793a204f6e6c79207472616e736665726160448201527431363290313c9031b7b73a3930b1ba1037bbb732b960591b6064820152608401610433565b61045d838383610f7b565b600081815260046020526040902080546001600160a01b0319166001600160a01b0384169081179091558190610d4e826105c0565b6001600160a01b03167f8c5be1e5ebec7d5bd14f71427d1e84f3dd0314c0f7b2291e5b200ac8c7c3b92560405160405180910390a45050565b610d9081611033565b6000818152600a602052604090208054610da9906119d4565b15905061051c576000818152600a6020526040812061051c91611580565b610dd183836110da565b610dde6000848484610dfa565b61045d5760405162461bcd60e51b815260040161043390611913565b60006001600160a01b0384163b15610efc57604051630a85bd0160e11b81526001600160a01b0385169063150b7a0290610e3e9033908990889088906004016118c3565b602060405180830381600087803b158015610e5857600080fd5b505af1925050508015610e88575060408051601f3d908101601f19168201909252610e85918101906117dc565b60015b610ee2573d808015610eb6576040519150601f19603f3d011682016040523d82523d6000602084013e610ebb565b606091505b508051610eda5760405162461bcd60e51b815260040161043390611913565b805181602001fd5b6001600160e01b031916630a85bd0160e11b149050610c3e565b506001949350505050565b6060610f1282610793565b6000610f2960408051602081019091526000815290565b90506000815111610f495760405180602001604052806000815250610f74565b80610f5384611228565b604051602001610f64929190611894565b6040516020818303038152906040525b9392505050565b6001600160a01b038316610fd657610fd181600880546000838152600960205260408120829055600182018355919091527ff3f7a9fe364faab93b216da50a3214154f22a0a2b415b23a84c8169e8b636ee30155565b610ff9565b816001600160a01b0316836001600160a01b031614610ff957610ff98382611342565b6001600160a01b0382166110105761045d816113df565b826001600160a01b0316826001600160a01b03161461045d5761045d82826114b8565b600061103e826105c0565b905061104c81600084610c96565b611057600083610d19565b6001600160a01b0381166000908152600360205260408120805460019290611080908490611991565b909155505060008281526002602052604080822080546001600160a01b0319169055518391906001600160a01b038416907fddf252ad1be2c89b69c2b068fc378daa952ba7f163c4a11628f55a4df523b3ef908390a45050565b6001600160a01b0382166111305760405162461bcd60e51b815260206004820181905260248201527f4552433732313a206d696e7420746f20746865207a65726f20616464726573736044820152606401610433565b6000818152600260205260409020546001600160a01b0316156111955760405162461bcd60e51b815260206004820152601c60248201527f4552433732313a20746f6b656e20616c7265616479206d696e746564000000006044820152606401610433565b6111a160008383610c96565b6001600160a01b03821660009081526003602052604081208054600192906111ca908490611965565b909155505060008181526002602052604080822080546001600160a01b0319166001600160a01b03861690811790915590518392907fddf252ad1be2c89b69c2b068fc378daa952ba7f163c4a11628f55a4df523b3ef908290a45050565b60608161124c5750506040805180820190915260018152600360fc1b602082015290565b8160005b8115611276578061126081611a0f565b915061126f9050600a8361197d565b9150611250565b60008167ffffffffffffffff81111561129f57634e487b7160e01b600052604160045260246000fd5b6040519080825280601f01601f1916602001820160405280156112c9576020820181803683370190505b5090505b8415610c3e576112de600183611991565b91506112eb600a86611a2a565b6112f6906030611965565b60f81b81838151811061131957634e487b7160e01b600052603260045260246000fd5b60200101906001600160f81b031916908160001a90535061133b600a8661197d565b94506112cd565b6000600161134f84610620565b6113599190611991565b6000838152600760205260409020549091508082146113ac576001600160a01b03841660009081526006602090815260408083208584528252808320548484528184208190558352600790915290208190555b5060009182526007602090815260408084208490556001600160a01b039094168352600681528383209183525290812055565b6008546000906113f190600190611991565b6000838152600960205260408120546008805493945090928490811061142757634e487b7160e01b600052603260045260246000fd5b90600052602060002001549050806008838154811061145657634e487b7160e01b600052603260045260246000fd5b600091825260208083209091019290925582815260099091526040808220849055858252812055600880548061149c57634e487b7160e01b600052603160045260246000fd5b6001900381819060005260206000200160009055905550505050565b60006114c383610620565b6001600160a01b039093166000908152600660209081526040808320868452825280832085905593825260079052919091209190915550565b828054611508906119d4565b90600052602060002090601f01602090048101928261152a5760008555611570565b82601f1061154357805160ff1916838001178555611570565b82800160010185558215611570579182015b82811115611570578251825591602001919060010190611555565b5061157c9291506115b6565b5090565b50805461158c906119d4565b6000825580601f1061159c575050565b601f01602090049060005260206000209081019061051c91905b5b8082111561157c57600081556001016115b7565b600067ffffffffffffffff808411156115e6576115e6611a6a565b604051601f8501601f19908116603f0116810190828211818310171561160e5761160e611a6a565b8160405280935085815286868601111561162757600080fd5b858560208301376000602087830101525050509392505050565b80356001600160a01b038116811461165857600080fd5b919050565b60006020828403121561166e578081fd5b610f7482611641565b60008060408385031215611689578081fd5b61169283611641565b91506116a060208401611641565b90509250929050565b6000806000606084860312156116bd578081fd5b6116c684611641565b92506116d460208501611641565b9150604084013590509250925092565b600080600080608085870312156116f9578081fd5b61170285611641565b935061171060208601611641565b925060408501359150606085013567ffffffffffffffff811115611732578182fd5b8501601f81018713611742578182fd5b611751878235602084016115cb565b91505092959194509250565b6000806040838503121561176f578182fd5b61177883611641565b91506020830135801515811461178c578182fd5b809150509250929050565b600080604083850312156117a9578182fd5b6117b283611641565b946020939093013593505050565b6000602082840312156117d1578081fd5b8135610f7481611a80565b6000602082840312156117ed578081fd5b8151610f7481611a80565b600060208284031215611809578081fd5b5035919050565b60008060408385031215611822578182fd5b82359150602083013567ffffffffffffffff81111561183f578182fd5b8301601f8101851361184f578182fd5b61185e858235602084016115cb565b9150509250929050565b600081518084526118808160208601602086016119a8565b601f01601f19169290920160200192915050565b600083516118a68184602088016119a8565b8351908301906118ba8183602088016119a8565b01949350505050565b6001600160a01b03858116825284166020820152604081018390526080606082018190526000906118f690830184611868565b9695505050505050565b602081526000610f746020830184611868565b60208082526032908201527f4552433732313a207472616e7366657220746f206e6f6e20455243373231526560408201527131b2b4bb32b91034b6b83632b6b2b73a32b960711b606082015260800190565b6000821982111561197857611978611a3e565b500190565b60008261198c5761198c611a54565b500490565b6000828210156119a3576119a3611a3e565b500390565b60005b838110156119c35781810151838201526020016119ab565b838111156106e75750506000910152565b600181811c908216806119e857607f821691505b60208210811415611a0957634e487b7160e01b600052602260045260246000fd5b50919050565b6000600019821415611a2357611a23611a3e565b5060010190565b600082611a3957611a39611a54565b500690565b634e487b7160e01b600052601160045260246000fd5b634e487b7160e01b600052601260045260246000fd5b634e487b7160e01b600052604160045260246000fd5b6001600160e01b03198116811461051c57600080fdfea2646970667358221220ac4dd382053e90d164b930fe59827102f9bc57f7f508029df639b6fe2815414d64736f6c63430008040033",
  "linkReferences": {},
  "deployedLinkReferences": {}
}